{
  "contractName": "SupplyChain",
  "abi": [
    {
      "inputs": [
        {
          "internalType": "string",
          "name": "name_",
          "type": "string"
        },
        {
          "internalType": "string",
          "name": "email_",
          "type": "string"
        }
      ],
      "stateMutability": "nonpayable",
      "type": "constructor"
    },
    {
      "anonymous": false,
      "inputs": [
        {
          "indexed": false,
          "internalType": "string",
          "name": "name",
          "type": "string"
        },
        {
          "indexed": false,
          "internalType": "string",
          "name": "email",
          "type": "string"
        },
        {
          "indexed": false,
          "internalType": "enum Types.UserRole",
          "name": "role",
          "type": "uint8"
        }
      ],
      "name": "LostUser",
      "type": "event"
    },
    {
      "anonymous": false,
      "inputs": [
        {
          "indexed": false,
          "internalType": "string",
          "name": "name",
          "type": "string"
        },
        {
          "indexed": false,
          "internalType": "string",
          "name": "manufacturerName",
          "type": "string"
        },
        {
          "indexed": false,
          "internalType": "string",
          "name": "scientificName",
          "type": "string"
        },
        {
          "indexed": false,
          "internalType": "string",
          "name": "barcodeId",
          "type": "string"
        },
        {
          "indexed": false,
          "internalType": "uint256",
          "name": "manDateEpoch",
          "type": "uint256"
        },
        {
          "indexed": false,
          "internalType": "uint256",
          "name": "expDateEpoch",
          "type": "uint256"
        }
      ],
      "name": "NewProduct",
      "type": "event"
    },
    {
      "anonymous": false,
      "inputs": [
        {
          "indexed": false,
          "internalType": "string",
          "name": "name",
          "type": "string"
        },
        {
          "indexed": false,
          "internalType": "string",
          "name": "email",
          "type": "string"
        },
        {
          "indexed": false,
          "internalType": "enum Types.UserRole",
          "name": "role",
          "type": "uint8"
        }
      ],
      "name": "NewUser",
      "type": "event"
    },
    {
      "anonymous": false,
      "inputs": [
        {
          "indexed": false,
          "internalType": "string",
          "name": "name",
          "type": "string"
        },
        {
          "indexed": false,
          "internalType": "string",
          "name": "manufacturerName",
          "type": "string"
        },
        {
          "indexed": false,
          "internalType": "string",
          "name": "scientificName",
          "type": "string"
        },
        {
          "indexed": false,
          "internalType": "string",
          "name": "barcodeId",
          "type": "string"
        },
        {
          "indexed": false,
          "internalType": "string",
          "name": "buyerName",
          "type": "string"
        },
        {
          "indexed": false,
          "internalType": "string",
          "name": "buyerEmail",
          "type": "string"
        }
      ],
      "name": "ProductOwnershipTransfer",
      "type": "event"
    },
    {
      "inputs": [],
      "name": "getAllProducts",
      "outputs": [
        {
          "components": [
            {
              "internalType": "string",
              "name": "name",
              "type": "string"
            },
            {
              "internalType": "string",
              "name": "manufacturerName",
              "type": "string"
            },
            {
              "internalType": "address",
              "name": "manufacturer",
              "type": "address"
            },
            {
              "internalType": "uint256",
              "name": "manDateEpoch",
              "type": "uint256"
            },
            {
              "internalType": "uint256",
              "name": "expDateEpoch",
              "type": "uint256"
            },
            {
              "internalType": "bool",
              "name": "isInBatch",
              "type": "bool"
            },
            {
              "internalType": "uint256",
              "name": "batchCount",
              "type": "uint256"
            },
            {
              "internalType": "string",
              "name": "barcodeId",
              "type": "string"
            },
            {
              "internalType": "string",
              "name": "productImage",
              "type": "string"
            },
            {
              "internalType": "enum Types.ProductType",
              "name": "productType",
              "type": "uint8"
            },
            {
              "internalType": "string",
              "name": "scientificName",
              "type": "string"
            },
            {
              "internalType": "string",
              "name": "usage",
              "type": "string"
            },
            {
              "internalType": "string[]",
              "name": "composition",
              "type": "string[]"
            },
            {
              "internalType": "string[]",
              "name": "sideEffects",
              "type": "string[]"
            }
          ],
          "internalType": "struct Types.Product[]",
          "name": "",
          "type": "tuple[]"
        }
      ],
      "stateMutability": "view",
      "type": "function",
      "constant": true
    },
    {
      "inputs": [],
      "name": "getMyProducts",
      "outputs": [
        {
          "components": [
            {
              "internalType": "string",
              "name": "name",
              "type": "string"
            },
            {
              "internalType": "string",
              "name": "manufacturerName",
              "type": "string"
            },
            {
              "internalType": "address",
              "name": "manufacturer",
              "type": "address"
            },
            {
              "internalType": "uint256",
              "name": "manDateEpoch",
              "type": "uint256"
            },
            {
              "internalType": "uint256",
              "name": "expDateEpoch",
              "type": "uint256"
            },
            {
              "internalType": "bool",
              "name": "isInBatch",
              "type": "bool"
            },
            {
              "internalType": "uint256",
              "name": "batchCount",
              "type": "uint256"
            },
            {
              "internalType": "string",
              "name": "barcodeId",
              "type": "string"
            },
            {
              "internalType": "string",
              "name": "productImage",
              "type": "string"
            },
            {
              "internalType": "enum Types.ProductType",
              "name": "productType",
              "type": "uint8"
            },
            {
              "internalType": "string",
              "name": "scientificName",
              "type": "string"
            },
            {
              "internalType": "string",
              "name": "usage",
              "type": "string"
            },
            {
              "internalType": "string[]",
              "name": "composition",
              "type": "string[]"
            },
            {
              "internalType": "string[]",
              "name": "sideEffects",
              "type": "string[]"
            }
          ],
          "internalType": "struct Types.Product[]",
          "name": "",
          "type": "tuple[]"
        }
      ],
      "stateMutability": "view",
      "type": "function",
      "constant": true
    },
    {
      "inputs": [
        {
          "internalType": "string",
          "name": "barcodeId_",
          "type": "string"
        }
      ],
      "name": "getSingleProduct",
      "outputs": [
        {
          "components": [
            {
              "internalType": "string",
              "name": "name",
              "type": "string"
            },
            {
              "internalType": "string",
              "name": "manufacturerName",
              "type": "string"
            },
            {
              "internalType": "address",
              "name": "manufacturer",
              "type": "address"
            },
            {
              "internalType": "uint256",
              "name": "manDateEpoch",
              "type": "uint256"
            },
            {
              "internalType": "uint256",
              "name": "expDateEpoch",
              "type": "uint256"
            },
            {
              "internalType": "bool",
              "name": "isInBatch",
              "type": "bool"
            },
            {
              "internalType": "uint256",
              "name": "batchCount",
              "type": "uint256"
            },
            {
              "internalType": "string",
              "name": "barcodeId",
              "type": "string"
            },
            {
              "internalType": "string",
              "name": "productImage",
              "type": "string"
            },
            {
              "internalType": "enum Types.ProductType",
              "name": "productType",
              "type": "uint8"
            },
            {
              "internalType": "string",
              "name": "scientificName",
              "type": "string"
            },
            {
              "internalType": "string",
              "name": "usage",
              "type": "string"
            },
            {
              "internalType": "string[]",
              "name": "composition",
              "type": "string[]"
            },
            {
              "internalType": "string[]",
              "name": "sideEffects",
              "type": "string[]"
            }
          ],
          "internalType": "struct Types.Product",
          "name": "",
          "type": "tuple"
        },
        {
          "components": [
            {
              "components": [
                {
                  "internalType": "address",
                  "name": "id_",
                  "type": "address"
                },
                {
                  "internalType": "uint256",
                  "name": "date",
                  "type": "uint256"
                }
              ],
              "internalType": "struct Types.UserHistory",
              "name": "manufacturer",
              "type": "tuple"
            },
            {
              "components": [
                {
                  "internalType": "address",
                  "name": "id_",
                  "type": "address"
                },
                {
                  "internalType": "uint256",
                  "name": "date",
                  "type": "uint256"
                }
              ],
              "internalType": "struct Types.UserHistory",
              "name": "supplier",
              "type": "tuple"
            },
            {
              "components": [
                {
                  "internalType": "address",
                  "name": "id_",
                  "type": "address"
                },
                {
                  "internalType": "uint256",
                  "name": "date",
                  "type": "uint256"
                }
              ],
              "internalType": "struct Types.UserHistory",
              "name": "vendor",
              "type": "tuple"
            },
            {
              "components": [
                {
                  "internalType": "address",
                  "name": "id_",
                  "type": "address"
                },
                {
                  "internalType": "uint256",
                  "name": "date",
                  "type": "uint256"
                }
              ],
              "internalType": "struct Types.UserHistory[]",
              "name": "customers",
              "type": "tuple[]"
            }
          ],
          "internalType": "struct Types.ProductHistory",
          "name": "",
          "type": "tuple"
        }
      ],
      "stateMutability": "view",
      "type": "function",
      "constant": true
    },
    {
      "inputs": [
        {
          "components": [
            {
              "internalType": "string",
              "name": "name",
              "type": "string"
            },
            {
              "internalType": "string",
              "name": "manufacturerName",
              "type": "string"
            },
            {
              "internalType": "address",
              "name": "manufacturer",
              "type": "address"
            },
            {
              "internalType": "uint256",
              "name": "manDateEpoch",
              "type": "uint256"
            },
            {
              "internalType": "uint256",
              "name": "expDateEpoch",
              "type": "uint256"
            },
            {
              "internalType": "bool",
              "name": "isInBatch",
              "type": "bool"
            },
            {
              "internalType": "uint256",
              "name": "batchCount",
              "type": "uint256"
            },
            {
              "internalType": "string",
              "name": "barcodeId",
              "type": "string"
            },
            {
              "internalType": "string",
              "name": "productImage",
              "type": "string"
            },
            {
              "internalType": "enum Types.ProductType",
              "name": "productType",
              "type": "uint8"
            },
            {
              "internalType": "string",
              "name": "scientificName",
              "type": "string"
            },
            {
              "internalType": "string",
              "name": "usage",
              "type": "string"
            },
            {
              "internalType": "string[]",
              "name": "composition",
              "type": "string[]"
            },
            {
              "internalType": "string[]",
              "name": "sideEffects",
              "type": "string[]"
            }
          ],
          "internalType": "struct Types.Product",
          "name": "product_",
          "type": "tuple"
        },
        {
          "internalType": "uint256",
          "name": "currentTime_",
          "type": "uint256"
        }
      ],
      "name": "addProduct",
      "outputs": [],
      "stateMutability": "nonpayable",
      "type": "function"
    },
    {
      "inputs": [
        {
          "internalType": "address",
          "name": "partyId_",
          "type": "address"
        },
        {
          "internalType": "string",
          "name": "barcodeId_",
          "type": "string"
        },
        {
          "internalType": "uint256",
          "name": "currentTime_",
          "type": "uint256"
        }
      ],
      "name": "sellProduct",
      "outputs": [],
      "stateMutability": "nonpayable",
      "type": "function"
    },
    {
      "inputs": [
        {
          "components": [
            {
              "internalType": "enum Types.UserRole",
              "name": "role",
              "type": "uint8"
            },
            {
              "internalType": "address",
              "name": "id_",
              "type": "address"
            },
            {
              "internalType": "string",
              "name": "name",
              "type": "string"
            },
            {
              "internalType": "string",
              "name": "email",
              "type": "string"
            }
          ],
          "internalType": "struct Types.UserDetails",
          "name": "user_",
          "type": "tuple"
        }
      ],
      "name": "addParty",
      "outputs": [],
      "stateMutability": "nonpayable",
      "type": "function"
    },
    {
      "inputs": [
        {
          "internalType": "address",
          "name": "id_",
          "type": "address"
        }
      ],
      "name": "getUserDetails",
      "outputs": [
        {
          "components": [
            {
              "internalType": "enum Types.UserRole",
              "name": "role",
              "type": "uint8"
            },
            {
              "internalType": "address",
              "name": "id_",
              "type": "address"
            },
            {
              "internalType": "string",
              "name": "name",
              "type": "string"
            },
            {
              "internalType": "string",
              "name": "email",
              "type": "string"
            }
          ],
          "internalType": "struct Types.UserDetails",
          "name": "",
          "type": "tuple"
        }
      ],
      "stateMutability": "view",
      "type": "function",
      "constant": true
    },
    {
      "inputs": [],
      "name": "getMyDetails",
      "outputs": [
        {
          "components": [
            {
              "internalType": "enum Types.UserRole",
              "name": "role",
              "type": "uint8"
            },
            {
              "internalType": "address",
              "name": "id_",
              "type": "address"
            },
            {
              "internalType": "string",
              "name": "name",
              "type": "string"
            },
            {
              "internalType": "string",
              "name": "email",
              "type": "string"
            }
          ],
          "internalType": "struct Types.UserDetails",
          "name": "",
          "type": "tuple"
        }
      ],
      "stateMutability": "view",
      "type": "function",
      "constant": true
    },
    {
      "inputs": [],
      "name": "getMyUsersList",
      "outputs": [
        {
          "components": [
            {
              "internalType": "enum Types.UserRole",
              "name": "role",
              "type": "uint8"
            },
            {
              "internalType": "address",
              "name": "id_",
              "type": "address"
            },
            {
              "internalType": "string",
              "name": "name",
              "type": "string"
            },
            {
              "internalType": "string",
              "name": "email",
              "type": "string"
            }
          ],
          "internalType": "struct Types.UserDetails[]",
          "name": "usersList_",
          "type": "tuple[]"
        }
      ],
      "stateMutability": "view",
      "type": "function",
      "constant": true
    }
  ],
  "bytecode": "0x60806040523480156200001157600080fd5b5060405162004b0438038062004b04833981016040819052620000349162000326565b604080516080810182526000815233602082015290810183905260608101829052620000608162000069565b5050506200058a565b60208101516001600160a01b03166200008157600080fd5b80516020820151620000949190620001cb565b15620000e65760405162461bcd60e51b815260206004820152601f60248201527f53616d65207573657220776974682073616d6520726f6c652065786973747300604482015260640160405180910390fd5b6020808201516001600160a01b0316600090815290819052604090208151815483929190829060ff1916600183600381111562000127576200012762000390565b0217905550602082015181546001600160a01b0390911661010002610100600160a81b03199091161781556040820151600182019062000168908262000437565b50606082015160028201906200017f908262000437565b5050506040808201516060830151835192517f71d9dffdac919adfd06ab94bdebcd997efa2ba73e829a41e63107c7f8ae330f693620001c093929162000531565b60405180910390a150565b60006001600160a01b038216620001e157600080fd5b6001600160a01b038281166000908152602081905260409020546101009004161580159062000252575082600381111562000220576200022062000390565b6001600160a01b03831660009081526020819052604090205460ff16600381111562000250576200025062000390565b145b9392505050565b634e487b7160e01b600052604160045260246000fd5b60005b838110156200028c57818101518382015260200162000272565b50506000910152565b600082601f830112620002a757600080fd5b81516001600160401b0380821115620002c457620002c462000259565b604051601f8301601f19908116603f01168101908282118183101715620002ef57620002ef62000259565b816040528381528660208588010111156200030957600080fd5b6200031c8460208301602089016200026f565b9695505050505050565b600080604083850312156200033a57600080fd5b82516001600160401b03808211156200035257600080fd5b620003608683870162000295565b935060208501519150808211156200037757600080fd5b50620003868582860162000295565b9150509250929050565b634e487b7160e01b600052602160045260246000fd5b600181811c90821680620003bb57607f821691505b602082108103620003dc57634e487b7160e01b600052602260045260246000fd5b50919050565b601f82111562000432576000816000526020600020601f850160051c810160208610156200040d5750805b601f850160051c820191505b818110156200042e5782815560010162000419565b5050505b505050565b81516001600160401b0381111562000453576200045362000259565b6200046b81620004648454620003a6565b84620003e2565b602080601f831160018114620004a357600084156200048a5750858301515b600019600386901b1c1916600185901b1785556200042e565b600085815260208120601f198616915b82811015620004d457888601518255948401946001909101908401620004b3565b5085821015620004f35787850151600019600388901b60f8161c191681555b5050505050600190811b01905550565b600081518084526200051d8160208601602086016200026f565b601f01601f19169290920160200192915050565b60608152600062000546606083018662000503565b82810360208401526200055a818662000503565b915050600483106200057c57634e487b7160e01b600052602160045260246000fd5b826040830152949350505050565b61456a806200059a6000396000f3fe608060405234801561001057600080fd5b50600436106100935760003560e01c8063431bbb7e11610066578063431bbb7e146100ff5780638248581e14610114578063cc3d967b14610127578063e386cb5f1461013a578063fdca4ca31461014f57600080fd5b806302ee3a5214610098578063067f046a146100b657806306b7dd71146100cb57806316756b0e146100de575b600080fd5b6100a0610157565b6040516100ad9190613a2f565b60405180910390f35b6100c96100c4366004613bae565b61074c565b005b6100c96100d9366004613c05565b610937565b6100f16100ec366004613cbe565b610944565b6040516100ad929190613cfb565b610107610966565b6040516100ad9190613e4f565b6100c9610122366004613f20565b61099e565b6101076101353660046140f0565b610ad0565b610142610b09565b6040516100ad919061410b565b6100a0610b14565b60606004805480602002602001604051908101604052809291908181526020016000905b8282101561074357838290600052602060002090600e0201604051806101c00160405290816000820180546101af90614162565b80601f01602080910402602001604051908101604052809291908181526020018280546101db90614162565b80156102285780601f106101fd57610100808354040283529160200191610228565b820191906000526020600020905b81548152906001019060200180831161020b57829003601f168201915b5050505050815260200160018201805461024190614162565b80601f016020809104026020016040519081016040528092919081815260200182805461026d90614162565b80156102ba5780601f1061028f576101008083540402835291602001916102ba565b820191906000526020600020905b81548152906001019060200180831161029d57829003601f168201915b505050918352505060028201546001600160a01b031660208201526003820154604082015260048201546060820152600582015460ff1615156080820152600682015460a082015260078201805460c09092019161031790614162565b80601f016020809104026020016040519081016040528092919081815260200182805461034390614162565b80156103905780601f1061036557610100808354040283529160200191610390565b820191906000526020600020905b81548152906001019060200180831161037357829003601f168201915b505050505081526020016008820180546103a990614162565b80601f01602080910402602001604051908101604052809291908181526020018280546103d590614162565b80156104225780601f106103f757610100808354040283529160200191610422565b820191906000526020600020905b81548152906001019060200180831161040557829003601f168201915b5050509183525050600982015460209091019060ff1660048111156104495761044961386a565b600481111561045a5761045a61386a565b8152602001600a8201805461046e90614162565b80601f016020809104026020016040519081016040528092919081815260200182805461049a90614162565b80156104e75780601f106104bc576101008083540402835291602001916104e7565b820191906000526020600020905b8154815290600101906020018083116104ca57829003601f168201915b50505050508152602001600b8201805461050090614162565b80601f016020809104026020016040519081016040528092919081815260200182805461052c90614162565b80156105795780601f1061054e57610100808354040283529160200191610579565b820191906000526020600020905b81548152906001019060200180831161055c57829003601f168201915b50505050508152602001600c8201805480602002602001604051908101604052809291908181526020016000905b828210156106535783829060005260206000200180546105c690614162565b80601f01602080910402602001604051908101604052809291908181526020018280546105f290614162565b801561063f5780601f106106145761010080835404028352916020019161063f565b820191906000526020600020905b81548152906001019060200180831161062257829003601f168201915b5050505050815260200190600101906105a7565b505050508152602001600d8201805480602002602001604051908101604052809291908181526020016000905b8282101561072c57838290600052602060002001805461069f90614162565b80601f01602080910402602001604051908101604052809291908181526020018280546106cb90614162565b80156107185780601f106106ed57610100808354040283529160200191610718565b820191906000526020600020905b8154815290600101906020018083116106fb57829003601f168201915b505050505081526020019060010190610680565b50505050815250508152602001906001019061017b565b50505050905090565b61075583610b1e565b6107985760405162461bcd60e51b815260206004820152600f60248201526e14185c9d1e481b9bdd08199bdd5b99608a1b60448201526064015b60405180910390fd5b6001600160a01b0383166000908152602081905260408082208151608081019092528054829060ff1660038111156107d2576107d261386a565b60038111156107e3576107e361386a565b8152815461010090046001600160a01b0316602082015260018201805460409092019161080f90614162565b80601f016020809104026020016040519081016040528092919081815260200182805461083b90614162565b80156108885780601f1061085d57610100808354040283529160200191610888565b820191906000526020600020905b81548152906001019060200180831161086b57829003601f168201915b505050505081526020016002820180546108a190614162565b80601f01602080910402602001604051908101604052809291908181526020018280546108cd90614162565b801561091a5780601f106108ef5761010080835404028352916020019161091a565b820191906000526020600020905b8154815290600101906020018083116108fd57829003601f168201915b505050505081525050905061093184848385610b63565b50505050565b6109418133611417565b50565b61094c613646565b6109546136d1565b61095d8361165a565b91509150915091565b61099060408051608081019091528060008152600060208201526060604082018190529081015290565b61099933611d3d565b905090565b336109eb5760405162461bcd60e51b815260206004820152601960248201527f53656e6465722773206164647265737320697320456d70747900000000000000604482015260640161078f565b3360009081526020819052604090205461010090046001600160a01b0316610a555760405162461bcd60e51b815260206004820152601760248201527f557365722773206164647265737320697320456d707479000000000000000000604482015260640161078f565b3360009081526020819052604081205460ff166003811115610a7957610a7961386a565b14610ac25760405162461bcd60e51b815260206004820152601960248201527813db9b1e481b585b9d599858dd1d5c995c8818d85b88185919603a1b604482015260640161078f565b610acc8282611da5565b5050565b610afa60408051608081019091528060008152600060208201526060604082018190529081015290565b610b0382611d3d565b92915050565b6060610999336121de565b6060610999612828565b6000806001600160a01b038316610b355792915050565b6001600160a01b0383811660009081526020819052604090205461010090041615610b035750600192915050565b82610c26600582604051610b77919061419c565b90815260200160405180910390206007018054610b9390614162565b80601f0160208091040260200160405190810160405280929190818152602001828054610bbf90614162565b8015610c0c5780601f10610be157610100808354040283529160200191610c0c565b820191906000526020600020905b815481529060010190602001808311610bef57829003601f168201915b505050505060405180602001604052806000815250612f6e565b15610c3057600080fd5b6000600585604051610c42919061419c565b9081526020016040518091039020604051806101c0016040529081600082018054610c6c90614162565b80601f0160208091040260200160405190810160405280929190818152602001828054610c9890614162565b8015610ce55780601f10610cba57610100808354040283529160200191610ce5565b820191906000526020600020905b815481529060010190602001808311610cc857829003601f168201915b50505050508152602001600182018054610cfe90614162565b80601f0160208091040260200160405190810160405280929190818152602001828054610d2a90614162565b8015610d775780601f10610d4c57610100808354040283529160200191610d77565b820191906000526020600020905b815481529060010190602001808311610d5a57829003601f168201915b505050918352505060028201546001600160a01b031660208201526003820154604082015260048201546060820152600582015460ff1615156080820152600682015460a082015260078201805460c090920191610dd490614162565b80601f0160208091040260200160405190810160405280929190818152602001828054610e0090614162565b8015610e4d5780601f10610e2257610100808354040283529160200191610e4d565b820191906000526020600020905b815481529060010190602001808311610e3057829003601f168201915b50505050508152602001600882018054610e6690614162565b80601f0160208091040260200160405190810160405280929190818152602001828054610e9290614162565b8015610edf5780601f10610eb457610100808354040283529160200191610edf565b820191906000526020600020905b815481529060010190602001808311610ec257829003601f168201915b5050509183525050600982015460209091019060ff166004811115610f0657610f0661386a565b6004811115610f1757610f1761386a565b8152602001600a82018054610f2b90614162565b80601f0160208091040260200160405190810160405280929190818152602001828054610f5790614162565b8015610fa45780601f10610f7957610100808354040283529160200191610fa4565b820191906000526020600020905b815481529060010190602001808311610f8757829003601f168201915b50505050508152602001600b82018054610fbd90614162565b80601f0160208091040260200160405190810160405280929190818152602001828054610fe990614162565b80156110365780601f1061100b57610100808354040283529160200191611036565b820191906000526020600020905b81548152906001019060200180831161101957829003601f168201915b50505050508152602001600c8201805480602002602001604051908101604052809291908181526020016000905b8282101561111057838290600052602060002001805461108390614162565b80601f01602080910402602001604051908101604052809291908181526020018280546110af90614162565b80156110fc5780601f106110d1576101008083540402835291602001916110fc565b820191906000526020600020905b8154815290600101906020018083116110df57829003601f168201915b505050505081526020019060010190611064565b505050508152602001600d8201805480602002602001604051908101604052809291908181526020016000905b828210156111e957838290600052602060002001805461115c90614162565b80601f016020809104026020016040519081016040528092919081815260200182805461118890614162565b80156111d55780601f106111aa576101008083540402835291602001916111d5565b820191906000526020600020905b8154815290600101906020018083116111b857829003601f168201915b50505050508152602001906001019061113d565b50505091525050604080518082019091526020808701516001600160a01b0316825281018590529091506001855160038111156112285761122861386a565b0361127f578060078760405161123e919061419c565b9081526040516020918190038201902082516002820180546001600160a01b0319166001600160a01b039092169190911790559101516003909101556113a9565b6002855160038111156112945761129461386a565b036112eb57806007876040516112aa919061419c565b9081526040516020918190038201902082516004820180546001600160a01b0319166001600160a01b039092169190911790559101516005909101556113a9565b6003855160038111156113005761130061386a565b0361136b57600786604051611315919061419c565b90815260405160209181900382019020600601805460018082018355600092835291839020845160029092020180546001600160a01b0319166001600160a01b03909216919091178155918301519101556113a9565b60405162461bcd60e51b81526020600482015260136024820152722737ba103b30b634b21037b832b930ba34b7b760691b604482015260640161078f565b6113b4338888612fc7565b7fe506af946a27b45d5181c4cb95c3a98fa538282ac2f40f4afce8a3de328e51fd826000015183602001518461014001518560e0015189604001518a60600151604051611406969594939291906141b8565b60405180910390a150505050505050565b6001600160a01b03811661142a57600080fd5b60208201516001600160a01b031661144157600080fd5b600061144c8261329e565b51600381111561145e5761145e61386a565b14801561147d575060018251600381111561147b5761147b61386a565b145b15611532576001600160a01b0381166000908152600160208181526040832080548084018255908452922084516003938402909101805486949193849260ff199092169184908111156114d2576114d261386a565b0217905550602082015181546001600160a01b0390911661010002610100600160a81b031990911617815560408201516001820190611511908261428b565b5060608201516002820190611526908261428b565b505050610acc8261346e565b600161153d8261329e565b51600381111561154f5761154f61386a565b14801561156e575060028251600381111561156c5761156c61386a565b145b156115c8576001600160a01b038116600090815260026020908152604082208054600181810183559184529190922084516003928302909101805486949193849260ff19909216919084908111156114d2576114d261386a565b60026115d38261329e565b5160038111156115e5576115e561386a565b14801561160457506003825160038111156116025761160261386a565b145b1561136b576001600160a01b0381166000908152600360208181526040832080546001818101835591855291909320855191830201805486949193849260ff19909216919084908111156114d2576114d261386a565b611662613646565b61166a6136d1565b60058360405161167a919061419c565b9081526020016040518091039020600784604051611698919061419c565b908152602001604051809103902081604051806101c00160405290816000820180546116c390614162565b80601f01602080910402602001604051908101604052809291908181526020018280546116ef90614162565b801561173c5780601f106117115761010080835404028352916020019161173c565b820191906000526020600020905b81548152906001019060200180831161171f57829003601f168201915b5050505050815260200160018201805461175590614162565b80601f016020809104026020016040519081016040528092919081815260200182805461178190614162565b80156117ce5780601f106117a3576101008083540402835291602001916117ce565b820191906000526020600020905b8154815290600101906020018083116117b157829003601f168201915b505050918352505060028201546001600160a01b031660208201526003820154604082015260048201546060820152600582015460ff1615156080820152600682015460a082015260078201805460c09092019161182b90614162565b80601f016020809104026020016040519081016040528092919081815260200182805461185790614162565b80156118a45780601f10611879576101008083540402835291602001916118a4565b820191906000526020600020905b81548152906001019060200180831161188757829003601f168201915b505050505081526020016008820180546118bd90614162565b80601f01602080910402602001604051908101604052809291908181526020018280546118e990614162565b80156119365780601f1061190b57610100808354040283529160200191611936565b820191906000526020600020905b81548152906001019060200180831161191957829003601f168201915b5050509183525050600982015460209091019060ff16600481111561195d5761195d61386a565b600481111561196e5761196e61386a565b8152602001600a8201805461198290614162565b80601f01602080910402602001604051908101604052809291908181526020018280546119ae90614162565b80156119fb5780601f106119d0576101008083540402835291602001916119fb565b820191906000526020600020905b8154815290600101906020018083116119de57829003601f168201915b50505050508152602001600b82018054611a1490614162565b80601f0160208091040260200160405190810160405280929190818152602001828054611a4090614162565b8015611a8d5780601f10611a6257610100808354040283529160200191611a8d565b820191906000526020600020905b815481529060010190602001808311611a7057829003601f168201915b50505050508152602001600c8201805480602002602001604051908101604052809291908181526020016000905b82821015611b67578382906000526020600020018054611ada90614162565b80601f0160208091040260200160405190810160405280929190818152602001828054611b0690614162565b8015611b535780601f10611b2857610100808354040283529160200191611b53565b820191906000526020600020905b815481529060010190602001808311611b3657829003601f168201915b505050505081526020019060010190611abb565b505050508152602001600d8201805480602002602001604051908101604052809291908181526020016000905b82821015611c40578382906000526020600020018054611bb390614162565b80601f0160208091040260200160405190810160405280929190818152602001828054611bdf90614162565b8015611c2c5780601f10611c0157610100808354040283529160200191611c2c565b820191906000526020600020905b815481529060010190602001808311611c0f57829003601f168201915b505050505081526020019060010190611b94565b505050915250506040805160c08101825283546001600160a01b0390811660808301908152600186015460a0840152825282518084018452600286015482168152600386015460208281019190915280840191909152835180850185526004870154909216825260058601548282015282840191909152600685018054845181840281018401909552808552949650919385936060860193909290919060009084015b82821015611d2b576000848152602090819020604080518082019091526002850290910180546001600160a01b03168252600190810154828401529083529092019101611ce3565b50505091525092969095509350505050565b611d6760408051608081019091528060008152600060208201526060604082018190529081015290565b6001600160a01b038216611d7a57600080fd5b6000611d858361329e565b602001516001600160a01b031603611d9c57600080fd5b610b038261329e565b8160e00151611dbd600582604051610b77919061419c565b611dc657600080fd5b60408301516001600160a01b03163314611e1e5760405162461bcd60e51b815260206004820152601960248201527813db9b1e481b585b9d599858dd1d5c995c8818d85b88185919603a1b604482015260640161078f565b6004805460018101825560009190915283518491600e027f8a35acfbc15ff81a39ae7d344fd709f28e8600b4aa8c65c6b64bfe7fe36bd19b01908190611e64908261428b565b5060208201516001820190611e79908261428b565b5060408201516002820180546001600160a01b0319166001600160a01b03909216919091179055606082015160038201556080820151600482015560a082015160058201805460ff191691151591909117905560c0820151600682015560e08201516007820190611eea908261428b565b506101008201516008820190611f00908261428b565b5061012082015160098201805460ff19166001836004811115611f2557611f2561386a565b0217905550610140820151600a820190611f3f908261428b565b50610160820151600b820190611f55908261428b565b506101808201518051611f7291600c84019160209091019061373a565b506101a08201518051611f8f91600d84019160209091019061373a565b5050508260058460e00151604051611fa7919061419c565b90815260405190819003602001902081518190611fc4908261428b565b5060208201516001820190611fd9908261428b565b5060408201516002820180546001600160a01b0319166001600160a01b03909216919091179055606082015160038201556080820151600482015560a082015160058201805460ff191691151591909117905560c0820151600682015560e0820151600782019061204a908261428b565b506101008201516008820190612060908261428b565b5061012082015160098201805460ff191660018360048111156120855761208561386a565b0217905550610140820151600a82019061209f908261428b565b50610160820151600b8201906120b5908261428b565b5061018082015180516120d291600c84019160209091019061373a565b506101a082015180516120ef91600d84019160209091019061373a565b50506040805180820182523381526020810185905260e0860151915190925060079161211a9161419c565b9081526040805160209281900383019020835181546001600160a01b0319166001600160a01b03909116178155928201516001938401553360009081526006835290812060e0870151815494850182559082529190209091019061217e908261428b565b507f6d3f7be874572e7843c7697df05672c142e68bab8cc20a6a88f885ed0a49d900836000015184602001518561014001518660e00151876060015188608001516040516121d19695949392919061434b565b60405180910390a1505050565b60606001600160a01b0382166122245760405162461bcd60e51b815260206004820152600b60248201526a496420697320656d70747960a81b604482015260640161078f565b600061222f8361329e565b5160038111156122415761224161386a565b0361242b576001600160a01b038216600090815260016020908152604080832080548251818502810185019093528083529193909284015b8282101561242057838290600052602060002090600302016040518060800160405290816000820160009054906101000a900460ff1660038111156122c0576122c061386a565b60038111156122d1576122d161386a565b8152815461010090046001600160a01b031660208201526001820180546040909201916122fd90614162565b80601f016020809104026020016040519081016040528092919081815260200182805461232990614162565b80156123765780601f1061234b57610100808354040283529160200191612376565b820191906000526020600020905b81548152906001019060200180831161235957829003601f168201915b5050505050815260200160028201805461238f90614162565b80601f01602080910402602001604051908101604052809291908181526020018280546123bb90614162565b80156124085780601f106123dd57610100808354040283529160200191612408565b820191906000526020600020905b8154815290600101906020018083116123eb57829003601f168201915b50505050508152505081526020019060010190612279565b505050509050919050565b60016124368361329e565b5160038111156124485761244861386a565b03612627576001600160a01b038216600090815260026020908152604080832080548251818502810185019093528083529193909284015b8282101561242057838290600052602060002090600302016040518060800160405290816000820160009054906101000a900460ff1660038111156124c7576124c761386a565b60038111156124d8576124d861386a565b8152815461010090046001600160a01b0316602082015260018201805460409092019161250490614162565b80601f016020809104026020016040519081016040528092919081815260200182805461253090614162565b801561257d5780601f106125525761010080835404028352916020019161257d565b820191906000526020600020905b81548152906001019060200180831161256057829003601f168201915b5050505050815260200160028201805461259690614162565b80601f01602080910402602001604051908101604052809291908181526020018280546125c290614162565b801561260f5780601f106125e45761010080835404028352916020019161260f565b820191906000526020600020905b8154815290600101906020018083116125f257829003601f168201915b50505050508152505081526020019060010190612480565b60026126328361329e565b5160038111156126445761264461386a565b0361136b576001600160a01b038216600090815260036020908152604080832080548251818502810185019093528083529193909284015b8282101561242057838290600052602060002090600302016040518060800160405290816000820160009054906101000a900460ff1660038111156126c3576126c361386a565b60038111156126d4576126d461386a565b8152815461010090046001600160a01b0316602082015260018201805460409092019161270090614162565b80601f016020809104026020016040519081016040528092919081815260200182805461272c90614162565b80156127795780601f1061274e57610100808354040283529160200191612779565b820191906000526020600020905b81548152906001019060200180831161275c57829003601f168201915b5050505050815260200160028201805461279290614162565b80601f01602080910402602001604051908101604052809291908181526020018280546127be90614162565b801561280b5780601f106127e05761010080835404028352916020019161280b565b820191906000526020600020905b8154815290600101906020018083116127ee57829003601f168201915b5050505050815250508152602001906001019061267c565b919050565b336000908152600660209081526040808320805482518185028101850190935280835260609493849084015b8282101561290057838290600052602060002001805461287390614162565b80601f016020809104026020016040519081016040528092919081815260200182805461289f90614162565b80156128ec5780601f106128c1576101008083540402835291602001916128ec565b820191906000526020600020905b8154815290600101906020018083116128cf57829003601f168201915b505050505081526020019060010190612854565b5050505090506000815167ffffffffffffffff81111561292257612922613aaa565b60405190808252806020026020018201604052801561295b57816020015b612948613646565b8152602001906001900390816129405790505b50905060005b8251811015612f6757600583828151811061297e5761297e6143ae565b6020026020010151604051612993919061419c565b9081526020016040518091039020604051806101c00160405290816000820180546129bd90614162565b80601f01602080910402602001604051908101604052809291908181526020018280546129e990614162565b8015612a365780601f10612a0b57610100808354040283529160200191612a36565b820191906000526020600020905b815481529060010190602001808311612a1957829003601f168201915b50505050508152602001600182018054612a4f90614162565b80601f0160208091040260200160405190810160405280929190818152602001828054612a7b90614162565b8015612ac85780601f10612a9d57610100808354040283529160200191612ac8565b820191906000526020600020905b815481529060010190602001808311612aab57829003601f168201915b505050918352505060028201546001600160a01b031660208201526003820154604082015260048201546060820152600582015460ff1615156080820152600682015460a082015260078201805460c090920191612b2590614162565b80601f0160208091040260200160405190810160405280929190818152602001828054612b5190614162565b8015612b9e5780601f10612b7357610100808354040283529160200191612b9e565b820191906000526020600020905b815481529060010190602001808311612b8157829003601f168201915b50505050508152602001600882018054612bb790614162565b80601f0160208091040260200160405190810160405280929190818152602001828054612be390614162565b8015612c305780601f10612c0557610100808354040283529160200191612c30565b820191906000526020600020905b815481529060010190602001808311612c1357829003601f168201915b5050509183525050600982015460209091019060ff166004811115612c5757612c5761386a565b6004811115612c6857612c6861386a565b8152602001600a82018054612c7c90614162565b80601f0160208091040260200160405190810160405280929190818152602001828054612ca890614162565b8015612cf55780601f10612cca57610100808354040283529160200191612cf5565b820191906000526020600020905b815481529060010190602001808311612cd857829003601f168201915b50505050508152602001600b82018054612d0e90614162565b80601f0160208091040260200160405190810160405280929190818152602001828054612d3a90614162565b8015612d875780601f10612d5c57610100808354040283529160200191612d87565b820191906000526020600020905b815481529060010190602001808311612d6a57829003601f168201915b50505050508152602001600c8201805480602002602001604051908101604052809291908181526020016000905b82821015612e61578382906000526020600020018054612dd490614162565b80601f0160208091040260200160405190810160405280929190818152602001828054612e0090614162565b8015612e4d5780601f10612e2257610100808354040283529160200191612e4d565b820191906000526020600020905b815481529060010190602001808311612e3057829003601f168201915b505050505081526020019060010190612db5565b505050508152602001600d8201805480602002602001604051908101604052809291908181526020016000905b82821015612f3a578382906000526020600020018054612ead90614162565b80601f0160208091040260200160405190810160405280929190818152602001828054612ed990614162565b8015612f265780601f10612efb57610100808354040283529160200191612f26565b820191906000526020600020905b815481529060010190602001808311612f0957829003601f168201915b505050505081526020019060010190612e8e565b5050505081525050828281518110612f5457612f546143ae565b6020908102919091010152600101612961565b5092915050565b600081604051602001612f81919061419c565b6040516020818303038152906040528051906020012083604051602001612fa8919061419c565b6040516020818303038152906040528051906020012014905092915050565b6001600160a01b038216600090815260066020908152604082208054600181018255908352912001612ff9828261428b565b506001600160a01b038316600090815260066020908152604080832080548251818502810185019093528083529192909190849084015b828210156130dc57838290600052602060002001805461304f90614162565b80601f016020809104026020016040519081016040528092919081815260200182805461307b90614162565b80156130c85780601f1061309d576101008083540402835291602001916130c8565b820191906000526020600020905b8154815290600101906020018083116130ab57829003601f168201915b505050505081526020019060010190613030565b5050505090506000815160016130f291906143da565b905060005b825181101561313857613123838281518110613115576131156143ae565b602002602001015185612f6e565b1561313057809150613138565b6001016130f7565b5081518110613149576131496143ed565b8151600103613178576001600160a01b038516600090815260066020526040812061317391613790565b613297565b6001600160a01b0385166000908152600660205260409020825161319e90600190614403565b815481106131ae576131ae6143ae565b9060005260206000200160066000876001600160a01b03166001600160a01b0316815260200190815260200160002082815481106131ee576131ee6143ae565b9060005260206000200190816132049190614416565b506001600160a01b0385166000908152600660205260409020825161322b90600190614403565b8154811061323b5761323b6143ae565b90600052602060002001600061325191906137ae565b6001600160a01b0385166000908152600660205260409020805480613278576132786144e9565b60019003818190600052602060002001600061329491906137ae565b90555b5050505050565b6132c860408051608081019091528060008152600060208201526060604082018190529081015290565b6001600160a01b0382166132db57600080fd5b6001600160a01b038216600090815260208190526040908190208151608081019092528054829060ff1660038111156133165761331661386a565b60038111156133275761332761386a565b8152815461010090046001600160a01b0316602082015260018201805460409092019161335390614162565b80601f016020809104026020016040519081016040528092919081815260200182805461337f90614162565b80156133cc5780601f106133a1576101008083540402835291602001916133cc565b820191906000526020600020905b8154815290600101906020018083116133af57829003601f168201915b505050505081526020016002820180546133e590614162565b80601f016020809104026020016040519081016040528092919081815260200182805461341190614162565b801561345e5780601f106134335761010080835404028352916020019161345e565b820191906000526020600020905b81548152906001019060200180831161344157829003601f168201915b5050505050815250509050919050565b60208101516001600160a01b031661348557600080fd5b613497816000015182602001516135c0565b156134e45760405162461bcd60e51b815260206004820152601f60248201527f53616d65207573657220776974682073616d6520726f6c652065786973747300604482015260640161078f565b6020808201516001600160a01b0316600090815290819052604090208151815483929190829060ff191660018360038111156135225761352261386a565b0217905550602082015181546001600160a01b0390911661010002610100600160a81b031990911617815560408201516001820190613561908261428b565b5060608201516002820190613576908261428b565b5050506040808201516060830151835192517f71d9dffdac919adfd06ab94bdebcd997efa2ba73e829a41e63107c7f8ae330f6936135b59392916144ff565b60405180910390a150565b60006001600160a01b0382166135d557600080fd5b6001600160a01b038281166000908152602081905260409020546101009004161580159061363f57508260038111156136105761361061386a565b6001600160a01b03831660009081526020819052604090205460ff16600381111561363d5761363d61386a565b145b9392505050565b604051806101c00160405280606081526020016060815260200160006001600160a01b031681526020016000815260200160008152602001600015158152602001600081526020016060815260200160608152602001600060048111156136af576136af61386a565b8152602001606081526020016060815260200160608152602001606081525090565b6040805160c0810190915260006080820181815260a08301919091528190815260200161370e604080518082019091526000808252602082015290565b815260200161372d604080518082019091526000808252602082015290565b8152602001606081525090565b828054828255906000526020600020908101928215613780579160200282015b828111156137805782518290613770908261428b565b509160200191906001019061375a565b5061378c9291506137e8565b5090565b508054600082559060005260206000209081019061094191906137e8565b5080546137ba90614162565b6000825580601f106137ca575050565b601f0160209004906000526020600020908101906109419190613805565b8082111561378c5760006137fc82826137ae565b506001016137e8565b5b8082111561378c5760008155600101613806565b60005b8381101561383557818101518382015260200161381d565b50506000910152565b6000815180845261385681602086016020860161381a565b601f01601f19169290920160200192915050565b634e487b7160e01b600052602160045260246000fd5b600581106138905761389061386a565b9052565b60008282518085526020808601955060208260051b8401016020860160005b848110156138e157601f198684030189526138cf83835161383e565b988401989250908301906001016138b3565b5090979650505050505050565b60006101c082518185526139048286018261383e565b9150506020830151848203602086015261391e828261383e565b915050604083015161393b60408601826001600160a01b03169052565b50606083015160608501526080830151608085015260a083015161396360a086018215159052565b5060c083015160c085015260e083015184820360e0860152613985828261383e565b91505061010080840151858303828701526139a0838261383e565b92505050610120808401516139b782870182613880565b505061014080840151858303828701526139d1838261383e565b9250505061016080840151858303828701526139ed838261383e565b925050506101808084015185830382870152613a098382613894565b925050506101a08084015185830382870152613a258382613894565b9695505050505050565b600060208083016020845280855180835260408601915060408160051b87010192506020870160005b82811015613a8657603f19888603018452613a748583516138ee565b94509285019290850190600101613a58565b5092979650505050505050565b80356001600160a01b038116811461282357600080fd5b634e487b7160e01b600052604160045260246000fd5b6040516080810167ffffffffffffffff81118282101715613ae357613ae3613aaa565b60405290565b6040516101c0810167ffffffffffffffff81118282101715613ae357613ae3613aaa565b604051601f8201601f1916810167ffffffffffffffff81118282101715613b3657613b36613aaa565b604052919050565b600082601f830112613b4f57600080fd5b813567ffffffffffffffff811115613b6957613b69613aaa565b613b7c601f8201601f1916602001613b0d565b818152846020838601011115613b9157600080fd5b816020850160208301376000918101602001919091529392505050565b600080600060608486031215613bc357600080fd5b613bcc84613a93565b9250602084013567ffffffffffffffff811115613be857600080fd5b613bf486828701613b3e565b925050604084013590509250925092565b600060208284031215613c1757600080fd5b813567ffffffffffffffff80821115613c2f57600080fd5b9083019060808286031215613c4357600080fd5b613c4b613ac0565b823560048110613c5a57600080fd5b8152613c6860208401613a93565b6020820152604083013582811115613c7f57600080fd5b613c8b87828601613b3e565b604083015250606083013582811115613ca357600080fd5b613caf87828601613b3e565b60608301525095945050505050565b600060208284031215613cd057600080fd5b813567ffffffffffffffff811115613ce757600080fd5b613cf384828501613b3e565b949350505050565b60006040808352613d0f60408401866138ee565b6020848203602086015260e08201613d3b83885180516001600160a01b03168252602090810151910152565b60208781015180516001600160a01b0316604086015290810151606085015250604087015180516001600160a01b03166080850152602081015160a085015250606087015160e060c08501528051918290526020810193600092610100909101905b80841015613dd757613dc382875180516001600160a01b03168252602090810151910152565b948401946001939093019290860190613d9d565b509998505050505050505050565b600481106138905761389061386a565b613e00828251613de5565b60018060a01b0360208201511660208301526000604082015160806040850152613e2d608085018261383e565b905060608301518482036060860152613e46828261383e565b95945050505050565b60208152600061363f6020830184613df5565b8035801515811461282357600080fd5b80356005811061282357600080fd5b600082601f830112613e9257600080fd5b8135602067ffffffffffffffff80831115613eaf57613eaf613aaa565b8260051b613ebe838201613b0d565b9384528581018301938381019088861115613ed857600080fd5b84880192505b85831015613f1457823584811115613ef65760008081fd5b613f048a87838c0101613b3e565b8352509184019190840190613ede565b98975050505050505050565b60008060408385031215613f3357600080fd5b823567ffffffffffffffff80821115613f4b57600080fd5b908401906101c08287031215613f6057600080fd5b613f68613ae9565b823582811115613f7757600080fd5b613f8388828601613b3e565b825250602083013582811115613f9857600080fd5b613fa488828601613b3e565b602083015250613fb660408401613a93565b60408201526060830135606082015260808301356080820152613fdb60a08401613e62565b60a082015260c083013560c082015260e083013582811115613ffc57600080fd5b61400888828601613b3e565b60e083015250610100808401358381111561402257600080fd5b61402e89828701613b3e565b828401525050610120614042818501613e72565b90820152610140838101358381111561405a57600080fd5b61406689828701613b3e565b828401525050610160808401358381111561408057600080fd5b61408c89828701613b3e565b82840152505061018080840135838111156140a657600080fd5b6140b289828701613e81565b8284015250506101a080840135838111156140cc57600080fd5b6140d889828701613e81565b91830191909152509660209590950135955050505050565b60006020828403121561410257600080fd5b61363f82613a93565b600060208083016020845280855180835260408601915060408160051b87010192506020870160005b82811015613a8657603f19888603018452614150858351613df5565b94509285019290850190600101614134565b600181811c9082168061417657607f821691505b60208210810361419657634e487b7160e01b600052602260045260246000fd5b50919050565b600082516141ae81846020870161381a565b9190910192915050565b60c0815260006141cb60c083018961383e565b82810360208401526141dd818961383e565b905082810360408401526141f1818861383e565b90508281036060840152614205818761383e565b90508281036080840152614219818661383e565b905082810360a084015261422d818561383e565b9998505050505050505050565b601f821115614286576000816000526020600020601f850160051c810160208610156142635750805b601f850160051c820191505b818110156142825782815560010161426f565b5050505b505050565b815167ffffffffffffffff8111156142a5576142a5613aaa565b6142b9816142b38454614162565b8461423a565b602080601f8311600181146142ee57600084156142d65750858301515b600019600386901b1c1916600185901b178555614282565b600085815260208120601f198616915b8281101561431d578886015182559484019460019091019084016142fe565b508582101561433b5787850151600019600388901b60f8161c191681555b5050505050600190811b01905550565b60c08152600061435e60c083018961383e565b8281036020840152614370818961383e565b90508281036040840152614384818861383e565b90508281036060840152614398818761383e565b6080840195909552505060a00152949350505050565b634e487b7160e01b600052603260045260246000fd5b634e487b7160e01b600052601160045260246000fd5b80820180821115610b0357610b036143c4565b634e487b7160e01b600052600160045260246000fd5b81810381811115610b0357610b036143c4565b818103614421575050565b61442b8254614162565b67ffffffffffffffff81111561444357614443613aaa565b614451816142b38454614162565b6000601f821160018114614485576000831561446d5750848201545b600019600385901b1c1916600184901b178455613297565b600085815260209020601f19841690600086815260209020845b838110156144bf578286015482556001958601959091019060200161449f565b508583101561433b5793015460001960f8600387901b161c19169092555050600190811b01905550565b634e487b7160e01b600052603160045260246000fd5b606081526000614512606083018661383e565b8281036020840152614524818661383e565b915050613cf36040830184613de556fea2646970667358221220a90e86eafe93d8df641b3a73ff22b717eb4dd5f0f75546b8d22f276d8b60692964736f6c63430008180033",
  "immutableReferences": {},
  "source": "// SPDX-License-Identifier: GPL-3.0\npragma experimental ABIEncoderV2;\npragma solidity >=0.8.0 <0.9.0;\n\nimport \"./Products.sol\";\nimport \"./Users.sol\";\n\n\ncontract SupplyChain is Users, Products {\n    /**\n     * @dev Create a new SupplyChain with the provided 'manufacturer'\n     * @param name_ Name of the manufacturer\n     * @param email_ Email of the manufacturer\n     */\n    constructor(string memory name_, string memory email_) {\n        Types.UserDetails memory mn_ = Types.UserDetails({\n            role: Types.UserRole.Manufacturer,\n            id_: msg.sender,\n            name: name_,\n            email: email_\n        });\n        add(mn_);\n    }\n\n    /**\n     * @dev To get All the products list.\n     * @return productsList All the products that were added so far\n     */\n    function getAllProducts() public view returns (Types.Product[] memory) {\n        return products;\n    }\n\n    /**\n     * @dev To get all the products linked a particular user\n     * @return productsList All the products that were linked to current logged-in user\n     */\n    function getMyProducts() public view returns (Types.Product[] memory) {\n        return getUserProducts();\n    }\n\n    /**\n     * @dev Get single product\n     * @param barcodeId_ Unique ID of the product\n     * @return product_ Details of the product & it's timeline\n     * @return history_ product lifecycle, who purchased when\n     */\n    function getSingleProduct(string memory barcodeId_)\n        public\n        view\n        returns (Types.Product memory, Types.ProductHistory memory)\n    {\n        return getSpecificProduct(barcodeId_);\n    }\n\n    /**\n     * @dev Adds new product to the products list\n     * @param product_ unique ID of the product\n     * @param currentTime_ Current Date, Time in epoch (To store when it got added)\n     */\n    function addProduct(Types.Product memory product_, uint256 currentTime_)\n        public\n        onlyManufacturer\n    {\n        addAProduct(product_, currentTime_);\n    }\n\n    /**\n     * @dev Transfer the ownership\n     * @param partyId_ Purchase user's account address\n     * @param barcodeId_ unique ID of the product\n     * @param currentTime_ Current Date Time in epoch to keep track of the history\n     */\n    function sellProduct(\n        address partyId_,\n        string memory barcodeId_,\n        uint256 currentTime_\n    ) public {\n        require(isPartyExists(partyId_), \"Party not found\");\n        Types.UserDetails memory party_ = users[partyId_];\n        sell(partyId_, barcodeId_, party_, currentTime_);\n    }\n\n    /**\n     * @dev To add an user to my account, which can be used in future at the time of selling\n     * @param user_ Details of the user that need to be added\n     */\n    function addParty(Types.UserDetails memory user_) public {\n        addparty(user_, msg.sender);\n    }\n\n    /**\n     * @dev To get details of the user\n     * @param id_ User Id for whom the details were needed\n     * @return user_ Details of the current logged-in User\n     */\n    function getUserDetails(address id_)\n        public\n        view\n        returns (Types.UserDetails memory)\n    {\n        return getPartyDetails(id_);\n    }\n\n    /**\n     * @dev To get details of the current logged-in user\n     * @return user_ Details of the current logged-in User\n     */\n    function getMyDetails() public view returns (Types.UserDetails memory) {\n        return getPartyDetails(msg.sender);\n    }\n\n    /**\n     * @dev To get List of users that were added by the current logged-in user\n     * @return usersList_ List of UserDetail objects will be returned (Which are added by same user)\n     */\n    function getMyUsersList()\n        public\n        view\n        returns (Types.UserDetails[] memory usersList_)\n    {\n        return getMyPartyList(msg.sender);\n    }\n}\n",
  "sourcePath": "/home/habib/blockchain/client work/Supply Chain/sample-supply-chain/blockchain/contracts/SupplyChain.sol",
  "compiler": {
    "name": "solc",
    "version": "0.8.24+commit.e11b9ed9.Emscripten.clang"
  },
  "schemaVersion": "3.4.16",
  "updatedAt": "2024-01-27T01:03:11.177Z",
  "networkType": "ethereum",
  "devdoc": {
    "kind": "dev",
    "methods": {
      "addParty((uint8,address,string,string))": {
        "details": "To add an user to my account, which can be used in future at the time of selling",
        "params": {
          "user_": "Details of the user that need to be added"
        }
      },
      "addProduct((string,string,address,uint256,uint256,bool,uint256,string,string,uint8,string,string,string[],string[]),uint256)": {
        "details": "Adds new product to the products list",
        "params": {
          "currentTime_": "Current Date, Time in epoch (To store when it got added)",
          "product_": "unique ID of the product"
        }
      },
      "constructor": {
        "details": "Create a new SupplyChain with the provided 'manufacturer'",
        "params": {
          "email_": "Email of the manufacturer",
          "name_": "Name of the manufacturer"
        }
      },
      "getAllProducts()": {
        "details": "To get All the products list.",
        "returns": {
          "_0": "productsList All the products that were added so far"
        }
      },
      "getMyDetails()": {
        "details": "To get details of the current logged-in user",
        "returns": {
          "_0": "user_ Details of the current logged-in User"
        }
      },
      "getMyProducts()": {
        "details": "To get all the products linked a particular user",
        "returns": {
          "_0": "productsList All the products that were linked to current logged-in user"
        }
      },
      "getMyUsersList()": {
        "details": "To get List of users that were added by the current logged-in user",
        "returns": {
          "usersList_": "List of UserDetail objects will be returned (Which are added by same user)"
        }
      },
      "getSingleProduct(string)": {
        "details": "Get single product",
        "params": {
          "barcodeId_": "Unique ID of the product"
        },
        "returns": {
          "_0": "product_ Details of the product & it's timeline",
          "_1": "history_ product lifecycle, who purchased when"
        }
      },
      "getUserDetails(address)": {
        "details": "To get details of the user",
        "params": {
          "id_": "User Id for whom the details were needed"
        },
        "returns": {
          "_0": "user_ Details of the current logged-in User"
        }
      },
      "sellProduct(address,string,uint256)": {
        "details": "Transfer the ownership",
        "params": {
          "barcodeId_": "unique ID of the product",
          "currentTime_": "Current Date Time in epoch to keep track of the history",
          "partyId_": "Purchase user's account address"
        }
      }
    },
    "version": 1
  },
  "userdoc": {
    "kind": "user",
    "methods": {},
    "version": 1
  }
}